:100000000C942A000C943F000C9499020C943F002D
:100010000C943F000C943F000C943F000C943F0064
:100020000C943F000C943F000C943F000C943F0054
:100030000C943F000C943F000C943F000C943F0044
:100040000C943F000C943F000C943F000C943F0034
:100050000C943F0011241FBECFE5D8E0DEBFCDBF1A
:1000600010E0A0E6B0E0E2E2FDE002C005900D92F3
:10007000A239B107D9F70E94D0020C948F060C94D4
:100080000000672B09F09FC0009711F4D8980895DD
:100090008130910511F4D99808958230910511F4B9
:1000A000DA9808958330910511F4DB98089584302F
:1000B000910511F4DC9808958530910511F4DD98CF
:1000C00008958630910511F4DE98089587309105E2
:1000D00011F4DF9808958A30910511F4C0980895BD
:1000E0008B30910511F4C19808958C30910511F46D
:1000F000C29808958D30910511F4C39808958E30FB
:10010000910511F4C49808958F30910511F4C598A4
:1001100008958031910511F4C698089581319105B3
:1001200011F4C79808958431910511F4A8980895A1
:100130008531910511F4A99808958631910511F43E
:10014000AA9808958731910511F4AB9808958831E4
:10015000910511F4AC9808958931910511F4AD9889
:1001600008958A31910511F4AE9808958B31910567
:1001700011F4AF9808958E31910511F49098089577
:100180008F31910511F4919808958032910511F401
:10019000929808958132910511F4939808958232CE
:1001A000910511F4949808958332910511F495986E
:1001B00008958432910511F496980895859709F071
:1001C0009FC097980895009711F4D89A08958130A8
:1001D000910511F4D99A08958230910511F4DA9AB3
:1001E00008958330910511F4DB9A089584309105C8
:1001F00011F4DC9A08958530910511F4DD9A089583
:100200008630910511F4DE9A08958730910511F436
:10021000DF9A08958A30910511F4C09A08958B30C1
:10022000910511F4C19A08958C30910511F4C29A88
:1002300008958D30910511F4C39A08958E3091057B
:1002400011F4C49A08958F30910511F4C59A089558
:100250008031910511F4C69A08958131910511F408
:10026000C79A08958431910511F4A89A08958531AB
:10027000910511F4A99A08958631910511F4AA9A6D
:1002800008958731910511F4AB9A0895883191054D
:1002900011F4AC9A08958931910511F4AD9A08953D
:1002A0008A31910511F4AE9A08958B31910511F4BC
:1002B000AF9A08958E31910511F4909A08958F3177
:1002C000910511F4919A08958032910511F4929A52
:1002D00008958132910511F4939A0895823291051F
:1002E00011F4949A08958332910511F4959A089522
:1002F0008432910511F4969A0895859709F4979A96
:100300000895CF93C82F80FF07C061E070E082E2BC
:1003100090E00E94410006C060E070E082E290E060
:100320000E944100C1FF07C061E070E083E290E0FD
:100330000E94410006C060E070E083E290E00E940D
:100340004100C2FF07C061E070E084E290E00E94DB
:10035000410006C060E070E084E290E00E9441004D
:10036000C3FF07C061E070E085E290E00E944100B9
:1003700006C060E070E085E290E00E944100CF910D
:100380000895CF93C82F60E070E08AE190E00E946A
:1003900041008C2F0E94810161E070E08BE190E0D0
:1003A0000E9441008FE99FE00197F1F700C0000033
:1003B00060E070E08BE190E00E9441008FE99FE0F7
:1003C0000197F1F700C00000CF91089580E00E94EE
:1003D000C10181E00E94C1010895CF93C62F8130F1
:1003E00059F480E8860F82958F700E94C1018C2F8E
:1003F0008F700E94C1010CC0823051F480EC860FD6
:1004000082958F700E94C1018C2F8F700E94C10154
:10041000CF91089580E00E9481012FEF89EF90E055
:10042000215080409040E1F700C0000083E00E942E
:10043000C1018FE19EE40197F1F700C0000083E065
:100440000E94C1018FED9BEA0197F1F700C0000007
:1004500083E00E94C10182E00E94C10182E00E940B
:10046000C10188E00E94C10180E00E94C1018CE0CE
:100470000E94C10180E00E94C10186E00E94C1018A
:100480000895CF93C82F61E070E08AE190E00E9468
:1004900041008C2F82958F700E94810161E070E095
:1004A0008BE190E00E9441008FE99FE00197F1F716
:1004B00000C0000060E070E08BE190E00E9441002D
:1004C0008FE99FE00197F1F700C000008C2F8F703B
:1004D0000E94810161E070E08BE190E00E944100A8
:1004E0008FE99FE00197F1F700C0000060E070E045
:1004F0008BE190E00E9441008FE99FE00197F1F7C6
:1005000000C00000CF910895CF93DF93EC01888164
:10051000882331F021960E94410289918111FBCFFD
:10052000DF91CF91089580E485BF80E88BBF7894F8
:1005300008951F920F920FB60F9211242F933F939D
:100540004F935F936F937F938F939F93AF93BF93DB
:10055000EF93FF930E94E60161E081E00E94ED01CC
:1005600080E690E00E9484022FEF89E698E1215016
:1005700080409040E1F700C000000E94E601FF913A
:10058000EF91BF91AF919F918F917F916F915F910B
:100590004F913F912F910F900FBE0F901F90189584
:1005A000CF93DF93CDB7DEB728970FB6F894DEBFB1
:1005B0000FBECDBF8FEF81BB84BB0E9493020E9410
:1005C0000A028FE99FE00197F1F700C000000E9446
:1005D000E60161E081E00E94ED018FE690E00E947B
:1005E00084028FE99FE00197F1F700C0000061E00D
:1005F00082E00E94ED0180EF87BB8FE99FE00197C9
:10060000F1F700C000008FE088BB8FE99FE0019701
:10061000F1F700C000000F2EFFE8EF2EF0E0FF2EF4
:10062000F02D8E010F5F1F4F86B38F30E9F38FE1FE
:100630009EE40197F1F700C0000026B397B39095B0
:1006400097BB8FE99FE00197F1F700C0000098B3D6
:10065000909598BB8FE99FE00197F1F700C00000EB
:1006600086B3803FE9F386B3822B90E08095909526
:1006700084312FEF920791F164F481312FEF9207CB
:10068000A1F082312FEF920721F18F309F4F81F53A
:100690002AC081342FEF920791F081382FEF920713
:1006A00099F081329F4F21F505C08EE790E00E94BE
:1006B00084022FC080E890E00E9484022AC082E871
:1006C00090E00E94840225C084E890E00E948402A9
:1006D00020C086E890E00E9484021BC088E890E079
:1006E0000E94840216C08AE890E00E94840211C031
:1006F0001F921F92FF92EF921F930F930E94A503E8
:10070000C8010E9484020F900F900F900F900F90DD
:100710000F908FE99FE00197F1F700C0000087B3C9
:10072000809587BB8FE99FE00197F1F700C000003B
:1007300088B3809588BB9FEF29E688E191502040DF
:100740008040E1F700C000006FCFAEE0B0E0EBEA20
:10075000F3E00C9466060D891E8986E08C831A836B
:1007600009838FEF9FE79E838D83AE01475E5F4FC6
:100770006F89788DCE0101960E94C703EF81F885BD
:10078000E00FF11F10822E96E4E00C948206ABE09D
:10079000B0E0EDECF3E00C9458066C017B018A01AB
:1007A000FC0117821682838181FFCCC1CE010196A4
:1007B0003C01F6019381F70193FD859193FF8191AF
:1007C0007F01882309F4BAC1853239F493FD8591FC
:1007D00093FF81917F01853229F4B60190E00E9458
:1007E000BE05E7CF912C212C312CFFE1F315D8F079
:1007F0008B3279F038F4803279F08332A1F4232DF2
:1008000020611DC08D3261F0803369F4232D216099
:1008100016C0832D8260382EE32DE4603E2E2AC060
:10082000F32DF8601DC037FC2DC020ED280F2A30B5
:1008300040F08E32B9F436FC81C1232D2064322E73
:1008400019C036FE06C08AE0989E200D1124922E13
:1008500011C0EAE02E9E200D1124222EF32DF0620D
:100860003F2E08C08C3621F4832D8068382E02C0BC
:10087000883641F4F70193FD859193FF81917F01C3
:100880008111B3CF982F9F7D9554933028F40C5F3E
:100890001F4F9FE399830DC0833631F0833771F08A
:1008A000833509F059C021C0F801808189830E5F2A
:1008B0001F4F88248394912C530113C02801F2E028
:1008C0004F0E511CF801A080B18036FE03C0692D87
:1008D00070E002C06FEF7FEFC5010E94B3054C01CD
:1008E0008201F32DFF773F2E16C0280122E0420E31
:1008F000511CF801A080B18036FE03C0692D70E064
:1009000002C06FEF7FEFC5010E94A8054C01F32DD7
:10091000F0683F2E820133FC1BC0822D90E08816C8
:100920009906B0F4B60180E290E00E94BE052A94D8
:10093000F4CFF50137FC859137FE81915F01B60157
:1009400090E00E94BE0521102A9421E0821A9108AD
:100950008114910471F7E8C0843611F0893641F5AD
:10096000F80137FE07C060817181828193810C5F3D
:100970001F4F08C060817181072E000C880B990BF6
:100980000E5F1F4FF32DFF763F2E97FF09C0909506
:100990008095709561957F4F8F4F9F4FF0683F2EE8
:1009A0002AE030E0A3010E94FA05882E861845C08F
:1009B000853731F4232D2F7EB22E2AE030E025C07A
:1009C000932D997FB92E8F36C1F018F4883579F0C0
:1009D000B5C0803719F0883721F0B0C0E92FE06149
:1009E000BE2EB4FE0DC0FB2DF460BF2E09C034FE38
:1009F0000AC0292F2660B22E06C028E030E005C0CC
:100A000020E130E002C020E132E0F801B7FE07C08B
:100A100060817181828193810C5F1F4F06C060816C
:100A2000718180E090E00E5F1F4FA3010E94FA05E4
:100A3000882E8618FB2DFF773F2E36FE0DC0232D06
:100A40002E7FA22E891458F434FE0BC032FC09C04C
:100A5000832D8E7EA82E05C0B82CA32C03C0B82CE5
:100A600001C0B92CA4FE0FC0FE01E80DF11D80816C
:100A7000803321F49A2D997EA92E09C0A2FE06C0CA
:100A8000B394B39404C08A2D867809F0B394A3FC80
:100A900011C0A0FE06C0B21488F4280C922C9B183A
:100AA0000EC0B21460F4B60180E290E00E94BE0570
:100AB000B394F7CFB21418F42B1802C0982C212C41
:100AC000A4FE10C0B60180E390E00E94BE05A2FE25
:100AD00017C0A1FC03C088E790E002C088E590E061
:100AE000B6010CC08A2D867859F0A1FE02C08BE2B7
:100AF00001C080E2A7FC8DE2B60190E00E94BE0535
:100B0000891438F4B60180E390E00E94BE059A94FF
:100B1000F7CF8A94F301E80DF11D8081B60190E0D2
:100B20000E94BE058110F5CF222009F442CEB60105
:100B300080E290E00E94BE052A94F6CFF6018681FD
:100B4000978102C08FEF9FEF2B96E2E10C94740621
:100B5000FC010590615070400110D8F78095909588
:100B60008E0F9F1F0895FC0161507040019001108D
:100B7000D8F7809590958E0F9F1F08950F931F9320
:100B8000CF93DF93FB01238121FD03C08FEF9FEF04
:100B90002CC022FF16C0468157812481358142171F
:100BA000530744F4A081B1819D012F5F3F4F3183F2
:100BB00020838C93268137812F5F3F4F3783268395
:100BC00014C08B01EC01FB010084F185E02D099537
:100BD000892BE1F6D80116968D919C911797019675
:100BE00017969C938E931697CE01DF91CF911F910C
:100BF0000F910895FA01AA27283051F1203181F18F
:100C0000E8946F936E7F6E5F7F4F8F4F9F4FAF4F14
:100C1000B1E03ED0B4E03CD0670F781F891F9A1F27
:100C2000A11D680F791F8A1F911DA11D6A0F711DDB
:100C3000811D911DA11D20D009F468943F912AE0E7
:100C4000269F11243019305D3193DEF6CF010895CF
:100C5000462F4770405D4193B3E00FD0C9F7F6CF00
:100C6000462F4F70405D4A3318F0495D31FD4052C8
:100C7000419302D0A9F7EACFB4E0A695979587955E
:100C800077956795BA95C9F700976105710508953D
:100C90009B01AC010A2E06945795479537952795E9
:100CA000BA95C9F7620F731F841F951FA01D089581
:100CB0002F923F924F925F926F927F928F929F926C
:100CC000AF92BF92CF92DF92EF92FF920F931F935A
:100CD000CF93DF93CDB7DEB7CA1BDB0B0FB6F8940B
:100CE000DEBF0FBECDBF09942A88398848885F844B
:100CF0006E847D848C849B84AA84B984C884DF80BC
:100D0000EE80FD800C811B81AA81B981CE0FD11D9F
:100D10000FB6F894DEBF0FBECDBFED010895F89475
:020D2000FFCF03
:100D22005377697463682050726573736564004514
:100D32006E7465722061204E756D626572003100BD
:100D4200320033004100340037006661696C0025CF
:020D5200780027
:00000001FF
