:100000000C94A2000C94B7000C9411030C94B7004C
:100010000C94B7000C94B7000C94B7000C94B70084
:100020000C94B7000C94B7000C94B7000C94B70074
:100030000C94B7000C94B7000C94B7000C94B70064
:100040000C94B7000C94B7000C94B7000C94B70054
:100050000C94B700430403042A040C042A042A0461
:100060002A0424042A042A042A042A042A042A0426
:100070002A042A04FD0306042A040F042A042A047D
:100080002A0415042A042A042A042A042A042A0415
:100090002A042A042A042A042A042A042A042A04F0
:1000A0002A042A042A042A042A042A042A042A04E0
:1000B0002A042A04000409042A0412042A042A0433
:1000C0002A0427042A042A042A042A042A042A04C3
:1000D0002A042A042A042A042A042A042A042A04B0
:1000E0002A042A042A042A042A042A042A042A04A0
:1000F0002A042A042A042A042A042A042A042A0490
:100100002A042A042A042A042A042A042A042A047F
:100110002A042A042A042A042A042A042A042A046F
:100120002A042A042A042A042A042A042A042A045F
:100130002A042A0418041B042A041E042A042A047C
:100140002A04210411241FBECFE5D8E0DEBFCDBFB5
:1001500010E0A0E6B0E0E6ECF0E102C005900D9200
:10016000A63CB107D9F70E94F8040C9461080C94DE
:100170000000672B09F09FC0009711F4D8980895EC
:100180008130910511F4D99808958230910511F4C8
:10019000DA9808958330910511F4DB98089584303E
:1001A000910511F4DC9808958530910511F4DD98DE
:1001B00008958630910511F4DE98089587309105F1
:1001C00011F4DF9808958A30910511F4C0980895CC
:1001D0008B30910511F4C19808958C30910511F47C
:1001E000C29808958D30910511F4C39808958E300A
:1001F000910511F4C49808958F30910511F4C598B4
:1002000008958031910511F4C698089581319105C2
:1002100011F4C79808958431910511F4A8980895B0
:100220008531910511F4A99808958631910511F44D
:10023000AA9808958731910511F4AB9808958831F3
:10024000910511F4AC9808958931910511F4AD9898
:1002500008958A31910511F4AE9808958B31910576
:1002600011F4AF9808958E31910511F49098089586
:100270008F31910511F4919808958032910511F410
:10028000929808958132910511F4939808958232DD
:10029000910511F4949808958332910511F495987D
:1002A00008958432910511F496980895859709F080
:1002B0009FC097980895009711F4D89A08958130B7
:1002C000910511F4D99A08958230910511F4DA9AC2
:1002D00008958330910511F4DB9A089584309105D7
:1002E00011F4DC9A08958530910511F4DD9A089592
:1002F0008630910511F4DE9A08958730910511F446
:10030000DF9A08958A30910511F4C09A08958B30D0
:10031000910511F4C19A08958C30910511F4C29A97
:1003200008958D30910511F4C39A08958E3091058A
:1003300011F4C49A08958F30910511F4C59A089567
:100340008031910511F4C69A08958131910511F417
:10035000C79A08958431910511F4A89A08958531BA
:10036000910511F4A99A08958631910511F4AA9A7C
:1003700008958731910511F4AB9A0895883191055C
:1003800011F4AC9A08958931910511F4AD9A08954C
:100390008A31910511F4AE9A08958B31910511F4CB
:1003A000AF9A08958E31910511F4909A08958F3186
:1003B000910511F4919A08958032910511F4929A61
:1003C00008958132910511F4939A0895823291052E
:1003D00011F4949A08958332910511F4959A089531
:1003E0008432910511F4969A0895859709F4979AA5
:1003F0000895CF93C82F80FF07C061E070E082E2CC
:1004000090E00E94B90006C060E070E082E290E0F7
:100410000E94B900C1FF07C061E070E083E290E094
:100420000E94B90006C060E070E083E290E00E94A4
:10043000B900C2FF07C061E070E084E290E00E9472
:10044000B90006C060E070E084E290E00E94B9006C
:10045000C3FF07C061E070E085E290E00E94B90050
:1004600006C060E070E085E290E00E94B900CF91A4
:100470000895CF93C82F60E070E08AE190E00E9479
:10048000B9008C2F0E94F90161E070E08BE190E0EF
:100490000E94B9008FE99FE00197F1F700C00000CA
:1004A00060E070E08BE190E00E94B9008FE99FE08E
:1004B0000197F1F700C00000CF91089580E00E94FD
:1004C000390281E00E9439020895CF93C62F81300E
:1004D00059F480E8860F82958F700E9439028C2F24
:1004E0008F700E9439020CC0823051F480EC860F6C
:1004F00082958F700E9439028C2F8F700E94390272
:10050000CF91089580E00E94F9012FEF89EF90E0EC
:10051000215080409040E1F700C0000083E00E943D
:1005200039028FE19EE40197F1F700C0000083E0FB
:100530000E9439028FED9BEA0197F1F700C000009D
:1005400083E00E94390282E00E94390282E00E9428
:10055000390288E00E94390280E00E9439028CE072
:100560000E94390280E00E94390286E00E9439022E
:100570000895CF93C82F61E070E08AE190E00E9477
:10058000B9008C2F82958F700E94F90161E070E0B4
:100590008BE190E00E94B9008FE99FE00197F1F7AD
:1005A00000C0000060E070E08BE190E00E94B900C4
:1005B0008FE99FE00197F1F700C000008C2F8F704A
:1005C0000E94F90161E070E08BE190E00E94B900C7
:1005D0008FE99FE00197F1F700C0000060E070E054
:1005E0008BE190E00E94B9008FE99FE00197F1F75D
:1005F00000C00000CF910895CF93DF93EC01888174
:10060000882331F021960E94B90289918111FBCF94
:10061000DF91CF91089580E485BF80E88BBF789407
:1006200008951F920F920FB60F9211242F933F93AC
:100630004F935F936F937F938F939F93AF93BF93EA
:10064000EF93FF930E945E0261E081E00E946502E9
:1006500080E690E00E94FC022FEF89E698E12150AD
:1006600080409040E1F700C000000E945E02FF91D0
:10067000EF91BF91AF919F918F917F916F915F911A
:100680004F913F912F910F900FBE0F901F90189593
:100690008FE99FE00197F1F700C000000E945E0221
:1006A00061E081E00E9465028FE690E00E94FC021A
:1006B0008FE99FE00197F1F700C0000061E082E060
:1006C0000E9465020895A89A2FEF80E792E02150DA
:1006D00080409040E1F700C0000008952FEF80E7D0
:1006E00092E0215080409040E1F700C0000015BA30
:1006F0002FEF80E792E0215080409040E1F700C06A
:10070000000008950F931F93CF93DF9300D000D084
:100710001F92CDB7DEB78E30910549F024F48A30B0
:1007200091052CF50EC08F30910531F00AC08EE78F
:1007300090E00E94FC021BC080E890E00E94FC0256
:1007400016C09F938F9382E890E09F938F938E01C2
:100750000F5F1F4F1F930F930E947705C8010E94E0
:10076000FC020F900F900F900F900F900F900F9032
:100770000F900F900F900F90DF91CF911F910F91DD
:1007800008950F931F93CF93DF93CDB7DEB72897CC
:100790000FB6F894DEBF0FBECDBF86B38F3019F40D
:1007A00086B38F30E9F38FE19EE40197F1F700C043
:1007B0000000E6B387B3809587BB8FE99FE0019780
:1007C000F1F700C0000088B3809588BB8FE99FE0F7
:1007D0000197F1F700C0000086B3803FE9F386B3CC
:1007E000E82BF0E0E095F095E151FF4FE837F10597
:1007F00088F5E65DFF4F0C94710502E010E045C0FE
:1008000003E010E042C004E010E03FC005E010E06B
:100810003CC006E010E039C007E010E036C008E058
:1008200010E033C009E010E030C000E010E02DC05F
:100830000AE010E02AC00BE010E027C00CE010E056
:1008400024C00DE010E021C00EE010E01EC00FE05B
:1008500010E01BC01F921F9285E890E09F938F933A
:100860008E010F5F1F4F1F930F930E947705C801E2
:100870000E94FC020F900F900F900F900F900F901E
:1008800003E610E002C001E010E08FE99FE001976D
:10089000F1F700C0000087B3809587BB8FE99FE028
:1008A0000197F1F700C0000088B3809588BBC801AC
:1008B0000E9482039FEF29E688E19150204080400A
:1008C000E1F700C00000C80128960FB6F894DEBF1B
:1008D0000FBECDBFDF91CF911F910F910895AF92C1
:1008E000BF92CF92DF92EF92FF920F931F93CF931D
:1008F000DF930E9463030E945E0261E082E00E9437
:10090000650288E890E00E94FC0261E081E00E94BC
:1009100065028DEA90E00E94FC02E12CF12CC1E01E
:10092000D0E0A12CB12CCC24C394D12C0E94C103C3
:100930008C010D9709F43FC00F3F8FEF180759F056
:100940000336110541F0C8010A978330910518F06C
:1009500004970297D0F484E990E00E94FC020E9480
:100960005E0261E082E00E94650288E890E00E94F9
:10097000FC0261E081E00E9465028DEA90E00E9445
:10098000FC02EA2CFB2CCC2DDD2DEC9EC001ED9E53
:10099000900DFC9E900D11247C01E00EF11ECE0105
:1009A000880F991FCC0FDD1FCC0FDD1FCC0FDD1F73
:1009B000C80FD91FBBCFC701DF91CF911F910F91F6
:1009C000FF90EF90DF90CF90BF90AF90089580EFB1
:1009D00087BB8FE99FE00197F1F700C000008FE02F
:1009E00088BB8FE99FE00197F1F700C000000895F0
:1009F0008FEF81BB84BB2FEF89EF90E021508040C7
:100A00009040E1F700C000000E9463032FEF89EFE0
:100A100090E0215080409040E1F700C000000E942B
:100A20000B030E9482020E9448030E94E7040E9476
:100A3000C1030E946E032FEF89EF90E021508040A8
:100A40009040E1F700C000000E9463032FEF89EFA0
:100A500090E0215080409040E1F700C000000E94EB
:100A600082020E946F04EC018FE39CE90197F1F789
:100A700000C000000E945E0261E081E00E94650209
:100A800084EA90E00E94FC0261E082E00E9465023C
:100A9000CE010E9482039FEF29EF80E09150204019
:100AA0008040E1F700C000000E945E0261E081E04A
:100AB0000E94650284EB90E00E94FC0261E082E00B
:100AC0000E946502CE01880F991F0E9482039FEF4A
:100AD00027EA81E6915020408040E1F700C0000005
:100AE000C0CFEE0FFF1F0590F491E02D0994AEE00A
:100AF000B0E0EDE7F5E00C9438080D891E8986E03A
:100B00008C831A8309838FEF9FE79E838D83AE01C9
:100B1000475E5F4F6F89788DCE0101960E949905DF
:100B2000EF81F885E00FF11F10822E96E4E00C941F
:100B30005408ABE0B0E0EFE9F5E00C942A086C0152
:100B40007B018A01FC0117821682838181FFCCC15F
:100B5000CE0101963C01F6019381F70193FD859149
:100B600093FF81917F01882309F4BAC1853239F45A
:100B700093FD859193FF81917F01853229F4B60120
:100B800090E00E949007E7CF912C212C312CFFE1BF
:100B9000F315D8F08B3279F038F4803279F0833263
:100BA000A1F4232D20611DC08D3261F0803369F4E2
:100BB000232D216016C0832D8260382EE32DE46042
:100BC0003E2E2AC0F32DF8601DC037FC2DC020ED4D
:100BD000280F2A3040F08E32B9F436FC81C1232D23
:100BE0002064322E19C036FE06C08AE0989E200D81
:100BF0001124922E11C0EAE02E9E200D1124222EE7
:100C0000F32DF0623F2E08C08C3621F4832D8068CE
:100C1000382E02C0883641F4F70193FD859193FF89
:100C200081917F018111B3CF982F9F7D955493308F
:100C300028F40C5F1F4F9FE399830DC0833631F07A
:100C4000833771F0833509F059C021C0F8018081E4
:100C500089830E5F1F4F88248394912C530113C006
:100C60002801F2E04F0E511CF801A080B18036FE41
:100C700003C0692D70E002C06FEF7FEFC5010E94D5
:100C800085074C018201F32DFF773F2E16C0280106
:100C900022E0420E511CF801A080B18036FE03C054
:100CA000692D70E002C06FEF7FEFC5010E947A07E7
:100CB0004C01F32DF0683F2E820133FC1BC0822DC6
:100CC00090E088169906B0F4B60180E290E00E94A8
:100CD00090072A94F4CFF50137FC859137FE819176
:100CE0005F01B60190E00E94900721102A9421E054
:100CF000821A91088114910471F7E8C0843611F0CA
:100D0000893641F5F80137FE07C060817181828123
:100D100093810C5F1F4F08C060817181072E000C0A
:100D2000880B990B0E5F1F4FF32DFF763F2E97FF19
:100D300009C090958095709561957F4F8F4F9F4F1B
:100D4000F0683F2E2AE030E0A3010E94CC07882EF5
:100D5000861845C0853731F4232D2F7EB22E2AE028
:100D600030E025C0932D997FB92E8F36C1F018F44D
:100D7000883579F0B5C0803719F0883721F0B0C0D8
:100D8000E92FE061BE2EB4FE0DC0FB2DF460BF2E36
:100D900009C034FE0AC0292F2660B22E06C028E002
:100DA00030E005C020E130E002C020E132E0F8018F
:100DB000B7FE07C060817181828193810C5F1F4FF4
:100DC00006C06081718180E090E00E5F1F4FA3013B
:100DD0000E94CC07882E8618FB2DFF773F2E36FE0B
:100DE0000DC0232D2E7FA22E891458F434FE0BC083
:100DF00032FC09C0832D8E7EA82E05C0B82CA32CF2
:100E000003C0B82C01C0B92CA4FE0FC0FE01E80D30
:100E1000F11D8081803321F49A2D997EA92E09C07D
:100E2000A2FE06C0B394B39404C08A2D867809F05C
:100E3000B394A3FC11C0A0FE06C0B21488F4280C21
:100E4000922C9B180EC0B21460F4B60180E290E0C0
:100E50000E949007B394F7CFB21418F42B1802C075
:100E6000982C212CA4FE10C0B60180E390E00E94D3
:100E70009007A2FE17C0A1FC03C088E790E002C063
:100E800088E590E0B6010CC08A2D867859F0A1FE65
:100E900002C08BE201C080E2A7FC8DE2B60190E0C7
:100EA0000E949007891438F4B60180E390E00E9414
:100EB00090079A94F7CF8A94F301E80DF11D808191
:100EC000B60190E00E9490078110F5CF222009F42E
:100ED00042CEB60180E290E00E9490072A94F6CFBD
:100EE000F6018681978102C08FEF9FEF2B96E2E19A
:100EF0000C944608FC010590615070400110D8F731
:100F0000809590958E0F9F1F0895FC016150704051
:100F100001900110D8F7809590958E0F9F1F08952E
:100F20000F931F93CF93DF93FB01238121FD03C018
:100F30008FEF9FEF2CC022FF16C04681578124817E
:100F400035814217530744F4A081B1819D012F5F81
:100F50003F4F318320838C93268137812F5F3F4F12
:100F60003783268314C08B01EC01FB010084F185DB
:100F7000E02D0995892BE1F6D80116968D919C916B
:100F80001797019617969C938E931697CE01DF9133
:100F9000CF911F910F910895FA01AA27283051F19E
:100FA000203181F1E8946F936E7F6E5F7F4F8F4F9A
:100FB0009F4FAF4FB1E03ED0B4E03CD0670F781FF9
:100FC000891F9A1FA11D680F791F8A1F911DA11DDE
:100FD0006A0F711D811D911DA11D20D009F4689417
:100FE0003F912AE0269F11243019305D3193DEF6BF
:100FF000CF010895462F4770405D4193B3E00FD075
:10100000C9F7F6CF462F4F70405D4A3318F0495D5F
:1010100031FD4052419302D0A9F7EACFB4E0A69542
:101020009795879577956795BA95C9F70097610564
:10103000710508959B01AC010A2E069457954795BA
:1010400037952795BA95C9F7620F731F841F951FAF
:10105000A01D08952F923F924F925F926F927F92C0
:101060008F929F92AF92BF92CF92DF92EF92FF92B8
:101070000F931F93CF93DF93CDB7DEB7CA1BDB0B64
:101080000FB6F894DEBF0FBECDBF09942A88398809
:1010900048885F846E847D848C849B84AA84B98410
:1010A000C884DF80EE80FD800C811B81AA81B9811C
:1010B000CE0FD11D0FB6F894DEBF0FBECDBFED0130
:0610C0000895F894FFCF33
:1010C600537769746368205072657373656400456D
:1010D6006E7465722061204E756D626572002A001D
:1010E6002300256400257800507265737320456ED1
:1010F600746572004572726F72202D20526573748A
:10110600617274004F627461696E65642054656D26
:10111600703A20004F627461696E65642054656D93
:061126007058323A20006F
:00000001FF
